:020000040800F2
:1000000000200020754A0008C5020008C702000849
:1000100000000000000000000000000000000000E0
:10002000000000000000000000000000C9020008FD
:100030000000000000000000CB020008CD02000814
:10004000C54A0008C54A0008E1020008C54A000880
:10005000C54A0008C54A0008C54A0008C54A000844
:10006000C54A0008C54A0008C54A0008C54A000834
:10007000C54A0008C54A000800000000C54A00083B
:1000800000000000C54A0008000000000000000059
:10009000F102000800000000C54A0008C54A000837
:1000A000C54A0008C54A0008C54A0008C54A0008F4
:1000B000C54A0008C54A0008000000000103000806
:1000C00010B5064C2378002B07D1054B002B02D02E
:1000D000044800E000BF0123237010BD400200204F
:1000E0000000000010710008044B10B5002B03D075
:1000F0000349044800E000BF10BDC04600000000F6
:10010000440200201071000802780B78002A03D006
:10011000013001319A42F7D0D01A70470023C25CF7
:100120000133002AFBD1581E7047000003B471460A
:10013000490840004900095E49008E4403BC7047ED
:10014000002243088B4274D303098B425FD3030A16
:100150008B4244D3030B8B4228D3030C8B420DD329
:10016000FF22090212BA030C8B4202D312120902B7
:1001700065D0030B8B4219D300E0090AC30B8B42F5
:1001800001D3CB03C01A5241830B8B4201D38B03A3
:10019000C01A5241430B8B4201D34B03C01A524148
:1001A000030B8B4201D30B03C01A5241C30A8B428B
:1001B00001D3CB02C01A5241830A8B4201D38B0276
:1001C000C01A5241430A8B4201D34B02C01A52411A
:1001D000030A8B4201D30B02C01A5241CDD2C3098C
:1001E0008B4201D3CB01C01A524183098B4201D308
:1001F0008B01C01A524143098B4201D34B01C01AF3
:10020000524103098B4201D30B01C01A5241C3086A
:100210008B4201D3CB00C01A524183088B4201D3D9
:100220008B00C01A524143088B4201D34B00C01AC5
:100230005241411A00D20146524110467047FFE731
:1002400001B5002000F006F802BDC0460029F7D035
:1002500076E770477047C0460A0030B5134C53002C
:1002600009030500090B00205B0DD20FA34204DD3A
:100270000F48834202DD0F4BD01830BD8020400371
:1002800001430D48C01A1F2808DD0C48C31AD94085
:100290000B005842002AF0D11800EEE7084CC54088
:1002A000A446634499400B002B43F2E7FE03000091
:1002B0001D040000FFFFFF7F330400001304000053
:1002C000EDFBFFFF7047FEE77047704710B500F089
:1002D000C7FD024A13680133136010BD8C1400205F
:1002E00010B5024800F064FD10BDC046E4130020C4
:1002F00010B5024801F052FE10BDC0464414002063
:1003000010B5024802F0AAFB10BDC046C80E00207E
:10031000054B5A6B01210A435A63996B802252059F
:100320000A439A637047C0460010024010B5026845
:10033000094B9A4200D010BD084A116D8023DB02A0
:100340000B43136500220021022001F04BFB022029
:1003500001F078FBEFE7C0460028004000100240A3
:1003600010B503688022D205934203D00B4A934212
:1003700006D010BD0A4A936B01210B439363F8E743
:10038000074A536B04210B435363002200211420BE
:1003900001F028FB142001F055FBEAE700080140BA
:1003A0000010024010B586B004001422002101A8FC
:1003B00006F0C3F922688023DB059A4201D006B01B
:1003C00010BD0A4AD16A01231943D162D26A13408F
:1003D0000093009B03230193013B02930593A0200C
:1003E00001A9C00501F024FAE9E7C0460010024067
:1003F00010B500221149124803F00EFC002811D15B
:1004000010490F4803F024FC00280ED10E490C4877
:1004100004F0AAFA00280BD1094803F022FC0028B6
:1004200009D110BD04F00EFEEAE704F00BFEEDE783
:1004300004F008FEF0E704F005FEF2E700000020FB
:100440005C020020680000205000002012230B8076
:10045000004870471C00002004230B8000487047B0
:100460003000002030B500230AE05D0037344C55E1
:1004700000015C0001340C19002525700133DBB24A
:10048000934206D2040F092CEFD85D0030344C554E
:10049000EEE730BD70B50B4B18680B4B1D680B4B6E
:1004A0001B68C018002800D170BD094CA11C08228F
:1004B000FFF7D8FF2100123104222800FFF7D2FFF6
:1004C000F2E7C0465000F81F5400F81F5800F81F0C
:1004D0003400002010B51A230B80FFF7DBFF014822
:1004E00010BDC0463400002010B50A00002805D118
:1004F0000549064804F05BF8034810BD024903486B
:1005000004F055F8F8E7C046F80400202871000808
:1005100010B50A00034C2100034804F048F82000FD
:1005200010BDC046F80400204071000810B50A0054
:10053000002805D10549064804F039F8034810BDE4
:100540000249034804F033F8F8E7C046F8040020F5
:100550005471000810B50A00002805D10549064865
:1005600004F025F8034810BD0249034804F01FF8C1
:10057000F8E7C046F80400206071000800207047CA
:100580000020704770B504000D00074E01003000D8
:1005900004F0FEF9300004F021FA2968200006F08A
:1005A0001FF8002070BDC0465C02002010B5064C4C
:1005B00000220649200004F0E0F90549200004F07B
:1005C000E7F9002010BDC0465C020020E00A0020D0
:1005D000F806002010B50A4AA4239B00D2587C3BA1
:1005E000D358002B01D0012010BD054C0A0001009A
:1005F000200004F0C2F9200004F0D1F9F4E7C0466D
:100600005C020020022804D005D8002800D0022077
:1006100070470120FCE70220FAE710B504F0B6FBB2
:1006200010BD000010B50268094B9A4200D010BD01
:10063000084A916B80231B040B4393630022002123
:100640001F2001F0CFF91F2001F0FCF9EFE7C046B1
:10065000005C00400010024010B50100BC239B006C
:10066000C058403B9C46614403F018FB10BD10B5D8
:100670000300BC22920080588A005218D2009B18B6
:100680007D33FF331A6803F03BFB10BD10B5030048
:10069000BC22920080588A005218D2009B18DA6B54
:1006A00003F080FB10BD10B5BC239B00C05803F0C5
:1006B00035FC10BD70B504008368022B09D1BC2540
:1006C000AD000121605903F011FC605903F0DFFB1C
:1006D00070BD04F0B7FCF2E710B50400BC239B002A
:1006E000C05803F007FCA369002B04D0024A136929
:1006F00006210B43136110BD00ED00E010B50400AE
:100700008369002B05D1BC239B00E05803F0FEFB5E
:1007100010BD044A136906218B431361FFF77DFF67
:10072000F1E7C04600ED00E070B504001D48BC23B1
:100730009B00C450583BE0501B4B036008234360B0
:10074000063B8360036100238361C361036201F0A0
:1007500065FD002823D1A625AD0018230022002125
:10076000605902F099FB582300228021605902F061
:1007700093FBC02300228121605902F08DFB882366
:100780005B0000220121605902F086FB6059802342
:100790005B000022822102F07FFB002070BD04F08C
:1007A00051FCD8E7C80E0020005C004010B5A6231D
:1007B0009B00C05801F0A4FDFFF724FF10BD10B549
:1007C00014001A00A6239B00C058230002F01AFA56
:1007D000FFF718FF10BD10B5A6239B00C05802F00C
:1007E00050FAFFF70FFF10BD10B5A6239B00C058AD
:1007F00002F0DEFAFFF706FF10BD10B5A6239B003E
:10080000C05802F00CFBFFF7FDFE10BDA6239B00B5
:10081000C3584AB2002A09DB7F220A409100891896
:10082000C9005B186B33FF33187870477F220A408A
:10083000013291008918C9005B189878F5E710B566
:10084000A6239B00C05802F0F3F8FFF7DBFE10BDB3
:1008500010B5A624A400005902F07CFAFFF7D2FEDE
:1008600010BD10B5A624A400005902F03EFAFFF70F
:10087000C9FE10BD10B5A6239B00C05802F060FA57
:1008800010BD000000487047BC110020704770B5D3
:1008900004000268D368A0218B43D36000F0ECFA17
:1008A00005002368DB689B0608D400F0E5FA401BCE
:1008B000FA239B009842F4D9032000E0002070BD89
:1008C00070B504000368DA68520601D5002070BDD7
:1008D00001225242DA6000F0CFFA05002368DB689B
:1008E0005B0608D400F0C8FA401BFA22920090423E
:1008F000F4D90320EBE70020E9E7000070B5041EFF
:1009000063D02123C35C002B41D021230222E25477
:100910002368C8325A622368773A5A622000FFF788
:10092000CFFF051E39D12268936829490B40936097
:1009300021688A68636820690343A06903431343FD
:100940008B602368E2681A6121680B69A26812044F
:1009500013430B612268D36880218B43D3602268E4
:10096000D36C7D398B43D3642168CB6CE2696069B9
:1009700002431343CB6423689B689B0615D5236809
:10098000FF225A622123FE3AE254280070BD203330
:100990000022C254FFF7CAFCB7E72368FF225A625D
:1009A0002123FB3AE2540125EFE72000FFF76FFF18
:1009B0000028E4D02368FF225A622123FB3AE25444
:1009C000013B0022E2540125DFE70125DDE7C046B7
:1009D000BFFF8FFF002302E001330A38C0B20928AD
:1009E000FAD81B01DBB2184370470000F8B50400C9
:1009F0000E002023C35C012B00D178E020230121CD
:100A0000C15401330131C154002A44D103689B68A9
:100A10005B0601D40023F3703078FFF7DBFF050499
:100A20007078FFF7D7FF00020543B078FFF7D2FFD9
:100A30000543F078000405432368CA225A622368FC
:100A4000773A5A622000FFF73BFF071E34D1236834
:100A5000284805401D602268936827490B40936031
:100A600021688B68F2683069024313438B60226807
:100A7000D36880218B43D36023689B689B0626D56F
:100A80002368FF225A622123FE3AE254013B0022EE
:100A9000E2543800F8BD03689B685B0601D400236C
:100AA000F37035782D04707800020543B078054363
:100AB000F07800040543BFE72368FF225A62212330
:100AC000FB3AE254013B0022E2540127E1E7200017
:100AD000FFF7DDFE0028D3D02368FF225A622123CE
:100AE000FB3AE254013B0022E2540127D1E70227FE
:100AF000CFE7C0467F7F7F00FFFFFBFF70B504009C
:100B00000E002023C35C012B69D020230121C15496
:100B100001330131C154002A06D17378D90603D5B7
:100B200010218B430A337370002A32D1F078FFF71B
:100B300051FF05047078FFF74DFF00020543B078C0
:100B4000FFF748FF05433078400305432368CA2276
:100B50005A622368773A5A622000FFF7B1FE061EF8
:100B600022D123681F4805405D602268D368802138
:100B70008B43D36023689B689B0620D52368FF22A4
:100B80005A622123FE3AE254013B0022E254300033
:100B900070BDF5782D04707800020543B0780543E8
:100BA000307840030543D1E72368FF225A622123AE
:100BB000FB3AE254013B0022E2540126E7E7200021
:100BC000FFF765FE0028D9D02368FF225A6221234F
:100BD000FB3AE254013B0022E2540126D7E7022609
:100BE000D5E7C0463FFFFF000200000983001B1845
:100BF0005B000F201040C018C0B27047F8B50C0061
:100C000003689B6A4B6003681B695B045B0C8B6029
:100C100003681B680E490B401E0C3F2030402070BB
:100C20001D0A7F273D4065701F40A770402131405D
:100C3000E170002A0AD1FFF7D7FF20702800FFF7E4
:100C4000D3FF60703800FFF7CFFFA0700020F8BD21
:100C50007F7F7F0070B50C0003685B680E490B4016
:100C6000180CE070190A1F260E4066703F251D40C3
:100C7000A5705B0B07210B402370002A0AD1FFF7F8
:100C8000B3FFE0703000FFF7AFFF60702800FFF7A0
:100C9000ABFFA070002070BD3FFFFF00F8B504005F
:100CA0000E0015002023C35C012B00D177E0202328
:100CB0000122C25401330132C2540368C8325A625D
:100CC0000368773A5A6203689B685B0518D500F0A1
:100CD000D3F807002368DB685B0711D500F0CCF878
:100CE000C01BFA239B009842F4D92368FF225A6262
:100CF0002123FC3AE254013B0022E25403204DE060
:100D00002268936827490B4093602168CA68FF23D3
:100D10001A40254B1343CB6000F0AEF80700236860
:100D2000DA68520711D400F0A7F8C01BFA239B0021
:100D30009842F4D92368FF225A622123FC3AE254F4
:100D4000013B0022E254032028E05E6122689368A0
:100D500007218B43936023689A6815439D60134B6A
:100D60001968802252031143196099680A439A60F6
:100D7000226891688023DB010B43936022689168AD
:100D80008023DB000B4393602368FF225A622123F8
:100D9000FE3AE254013B0022E2540020F8BD02205A
:100DA000FCE7C046FFFBFFFF7FFBFFFF00040140A5
:100DB00010B504000368DB685B0507D4084B80228C
:100DC00052035A6121230122E25410BD03F0B6FF01
:100DD0002168CA68FF231A40024B1343CB60EDE73A
:100DE000000401407FFBFFFF10B504000F4B197892
:100DF000FA208000FFF7A4F901000D4B1868FFF7F7
:100E00009FF900F029FE00280DD1032C01D9012003
:100E10000AE0013000222100404200F0E3FD054BD2
:100E20001C60002000E0012010BDC04660000020D2
:100E3000780100206400002010B5084A13684021A2
:100E40000B4313600020FFF7CFFF041E02D00124E4
:100E5000200010BDFFF75CFAFAE7C0460020024010
:100E6000034A1168034B1B785B1813607047C04638
:100E7000DC13002060000020014B18687047C0465A
:100E8000DC13002010B5264BD9680C230B40082B2F
:100E900042D00C2B11D0042B09D0214B5A68520B95
:100EA00007231340013380200002984010BD1C4BE3
:100EB0001B68DB0632D51B48F8E78A0C0F2313406A
:100EC000194AD25C890D032319400131144BDB68A8
:100ED000DB0309D55001801A8301181AC00080185D
:100EE0004002FFF72DF9E1E70D4B1B68DB0609D542
:100EF00053019B1A9801C01AC00080180002FFF726
:100F00001FF9D3E753019B1A9801C01AC00080183B
:100F10008002FFF715F9C9E70448C7E70448C5E7A9
:100F20000010024000093D00E071000800127A0044
:100F30000024F400F0B583B0041E00D193E2CA4B44
:100F4000DA680C251540DE6880235B021E400368CA
:100F5000DB0736D5082D2CD00C2D28D063688022D5
:100F6000520293424DD0A022D202934250D0BE4BA7
:100F70001A68BE490A401A601A68802149020A406C
:100F80000192019A1A68BA490A401A606368002BF4
:100F90004AD0FFF771FF0700B34B1B689B0310D4C7
:100FA000FFF76AFFC01B6428F6D903205CE2002E1D
:100FB000D4D0AD4B1B689B0303D56368002B00D1D5
:100FC00054E223689B0764D5E368042D3CD00C2DC4
:100FD00038D0002B00D1AEE0A3490A680920824333
:100FE00013430B60FFF748FF06009F4B1B685B072E
:100FF00000D597E0FFF740FF801B0228F5D90320BA
:1010000032E2994A116880235B020B431360BDE70B
:10101000954B19688022D2020A431A60196880220F
:1010200052020A431A60B1E7FFF726FF07008E4B12
:101030001B689B03C5D5FFF71FFFC01B6428F6D9AB
:10104000032011E2002EC4D1874A1268520702D54C
:10105000002B00D10CE2844E726886490A40216957
:1010600009020A437260326809218A4313433360DC
:10107000FFF708FFF26812090F2313407E4AD35C82
:10108000D8407E4B18600020FFF7AEFE002800D04D
:10109000EAE12368DB062CD5002D5FD1724B1B687B
:1010A0009B0503D5E369002B00D1E3E16E4A536849
:1010B00073490B40616A0B43536053681B021B0A60
:1010C000216A09060B435360636A590B013180237F
:1010D0001B028B40D16809090F220A4066498A5CCD
:1010E000D340664A13600020FFF77EFE002800D040
:1010F000BAE123681B077DD56369002B67D05A4A84
:10110000136D01210B431365FFF7B6FE0600564B26
:101110001B6D9B076ED4FFF7AFFE801B0228F6D92C
:101120000320A1E150494B68524A13402269120240
:1011300013434B60ADE74C4A136801218B431360A6
:10114000FFF79AFE0600484B1B685B07A1D5FFF727
:1011500093FE801B0228F6D9032085E1E369002B6A
:1011600022D0414A116880235B000B431360FFF7D4
:1011700083FE06003C4B1B689B0506D4FFF77CFEF4
:10118000801B0228F6D903206EE1374A53683C4998
:101190000B40616A0B43536053681B021B0A216AB0
:1011A00009060B435360A4E72F4A136835490B40E7
:1011B0001360FFF761FE06002B4B1B689B0598D55B
:1011C000FFF75AFE801B0228F6D903204CE1264A7D
:1011D000136D01218B431365FFF74EFE0600224B72
:1011E0001B6D9B0706D5FFF747FE801B0228F6D92B
:1011F000032039E123685B0700D48CE01A4B9B6B1A
:10120000DB001BD4184A916B80235B050B4393636F
:1012100001261D4B1B68DB0512D5A36880225200F6
:10122000934235D0002B4BD10F4B1A6D15490A4014
:101230001A651A6D15490A401A652FE00026E8E77D
:10124000114A116880235B000B431360FFF714FE03
:1012500007000D4B1B68DB05DFD4FFF70DFEC01B3D
:101260006428F6D90320FFE000100240FFFFFEFFD4
:10127000FFFFFBFFFFE0FFFFD071000878010020B7
:10128000FF1FFFFFFFFEFFFF00700040FFFBFFFF9F
:101290007E4A116D80235B000B431365A368002B0E
:1012A00028D0FFF7E9FD0700784B1B6D9B0530D474
:1012B000FFF7E2FDC01B764B9842F5D90320D3E03F
:1012C000A022D200934209D0704B1A6D71490A4096
:1012D0001A651A6D70490A401A65DFE76B4B196D84
:1012E000013AFF3A0A431A65196D802252000A43F7
:1012F0001A65D3E7FFF7C0FD0700644B1B6D9B0524
:1013000007D5FFF7B9FDC01B614B9842F5D9032003
:10131000AAE0012E21D023689B063CD5A369002BAF
:1013200021D05A4B99680120014399605A6B0243BE
:101330005A635A4A116A80239B010B431362FFF7D9
:101340009BFD0600514B9B689B0724D4FFF794FD3F
:10135000801B0228F6D9032086E04C4A936B504943
:101360000B409363D7E7494A936801218B4393600D
:101370004A4A136A4B490B401362FFF77DFD060092
:10138000424B9B689B0706D5FFF776FD801B022822
:10139000F6D9032068E0A36A002B00D16CE00C2D85
:1013A00049D0022B12D0394A13683F490B401360D1
:1013B000FFF762FD0400354B1B689B0139D5FFF731
:1013C0005BFD001B0228F6D903204DE02F4A13686D
:1013D00035490B401360FFF74FFD05002B4B1B6891
:1013E0009B0106D5FFF748FD401B0228F6D90320D4
:1013F0003AE02649CB682D4A1340E26A206B02434B
:10140000606B02431343CB600A6880235B04134381
:101410000B60FFF731FD04001C4B1B689B0106D4D9
:10142000FFF72AFD001B0228F6D903201CE000204C
:101430001AE0002018E0012B20D0144BDA6880233A
:101440005B021340E16A8B421AD1F0239B031340E5
:10145000216B8B4216D1C0231B041A40636B9A4246
:1014600012D1002000E0012003B0F0BD0120FBE715
:101470000120F9E70120F7E70020F5E70120F3E775
:101480000120F1E70120EFE70120EDE70010024025
:1014900088130000FFFEFFFFFFFBFFFF000001407D
:1014A000FFFFFFEFFFDFFFFFFFFFFFFEFFFF02FF7A
:1014B00070B504000D00002800D1B7E05F4B1A683A
:1014C000012313408B420AD25C490B6801229343EB
:1014D0002B430B600B681A40AA4200D0A8E0236897
:1014E0009B0706D5564AD368F0218B43A1680B436E
:1014F000D3602368DB0764D56368022B09D0032B14
:1015000029D0012B2DD04E4A1268920506D4012015
:101510008BE04B4A1268920300D48BE04849CA68BA
:10152000032082431343CB60FFF7A6FC06006368E9
:10153000022B1CD0032B28D0012B34D0404BDB686E
:101540000C221A423DD0FFF797FC801B3D4B98427E
:10155000F4D9032069E03A4A12689201DED40120EE
:1015600063E0374A12685207D8D401205DE0344B5B
:10157000DA680C231340082B23D0FFF77DFC801B77
:10158000304A9042F3D903204FE02D4BDA680C2308
:1015900013400C2B15D0FFF76FFC801B294B984292
:1015A000F3D9032041E0264BDA680C231340042BC7
:1015B00007D0FFF761FC801B224B9842F3D9032030
:1015C00033E01E4B1A6801231340AB4209D91B4973
:1015D0000B68012293432B430B600B681A40AA420D
:1015E0002AD123685B0706D5154AD36816490B40F4
:1015F000E1680B43D36023681B0707D51049CB680C
:10160000124A13402269D2001343CB60FFF73AFC21
:101610000B4BDA6812090F2313400D4AD35CD840F4
:101620000C4B18600020FFF7DFFB70BD0120FCE7CA
:101630000120FAE70120F8E70120F6E70020024048
:101640000010024088130000FFF8FFFFFFC7FFFFF4
:10165000D07100087801002070B5040003689B0673
:1016600052D5684B9B6BDB0000D58BE0654A916BD4
:1016700080235B050B4393630125634B1B68DB05EC
:1016800000D481E05F4B1968C0239B031940626856
:1016900013408B4206D0C0239B021100194099428F
:1016A00000D186E0574B196DC0239B0208001840FB
:1016B000194216D01A40824213D023689B0610D5D7
:1016C000504B186D514A02401E6D80210903314371
:1016D0001965196D4E4E314019651A65C30500D55F
:1016E0006EE06368C022920219001140914200D15D
:1016F00076E044490B6DC0229202606802401343B9
:101700000B65012D00D175E02368DB0706D53D4A46
:10171000D36C03218B43A1680B43D36423689B07DD
:1017200006D5384AD36C0C218B43E1680B43D36454
:1017300023685B0706D5334AD36C36490B402169D1
:101740000B43D36423681B0706D52E4AD36C32495A
:101750000B4061690B43D36423685B0606D5294AB5
:10176000D36C2E490B40E1690B43D36423681B06FD
:1017700046D5244AD36C2A490B40A1690B43D36454
:10178000002070BD002578E71F4A116880235B00A8
:101790000B431360FFF770FB06001B4B1B68DB0558
:1017A00000D56FE7FFF768FB801B6428F5D903209D
:1017B000E7E7144B1B689B0300D473E70120E0E7C5
:1017C000FFF75AFB06000F4B1B6D9B0500D588E702
:1017D000FFF752FB801B134B9842F4D90320D0E74C
:1017E00008490A6810480240C020800303401343A0
:1017F0000B607EE70A008B6B0C490B40936383E719
:101800000020BEE70010024000700040FFFFFCFF18
:10181000FFFFF7FFFFF3FFFFFFCFFFFFFFFFFFFB20
:10182000FFFFF3FF88130000FFFFCFFFFFFFFFEF75
:10183000F0B5CE46474680B5002333E0052600E0EC
:101840000026A64034003C4302329200564E94518A
:10185000564A1468EA432600AE434F68FF0301D599
:101860002C432600514C26606468260016404F68C1
:10187000BF0301D52C4326004C4C6660A4682600AB
:1018800016404F68FF0201D52C432600474CA66046
:10189000E46822404E68B60201D52A002243434C38
:1018A000E26001330C682200DA4078D001229A40CD
:1018B000250015401442F4D04C68661E012E03D951
:1018C000112C01D0122C12D184685F000326BE4077
:1018D000B4432600CC68BC403443846044689443DD
:1018E0004A681609012232409A4022434260C46885
:1018F0005F000326BE40F2439446B44326008C6842
:10190000BC403443C4604A68022A01D0122A10D174
:10191000DE080836B2009146145807221A40920099
:101920000F269640B4430E699640320022434C463F
:10193000225004686246144003224E683240BA4086
:10194000224302604A68D200ABD5194C626B012673
:10195000324362639A08941CA400134EA7590326CD
:101960001E40B4000F26A640B743A026F605B0429D
:1019700000D165E70F4EB0420BD00F4EB0420AD0F7
:101980000E4EB04209D00E4EB04200D156E70626A8
:1019900057E7012655E7022653E7032651E7C0BC67
:1019A000B946B046F0BDC046000001400004014009
:1019B000001002400004005000080050000C0050CD
:1019C000001C0050002A01D0816170478162FCE751
:1019D000034A116880235B000B4313607047C046C5
:1019E0000070004070B5002811DB8308134DC03330
:1019F0009B005C5903221040C000FC321600864058
:101A0000B44389010A40824022435A5170BD0F23DA
:101A10000340083B9B0806339B00094A94466344F5
:101A20005D6803242040C000FF2214008440A543C9
:101A300089010A4082402A435A60E7E700E100E05A
:101A400000ED00E01F2318401E3B8340014A136055
:101A50007047C04600E100E0013880235B049842F3
:101A60000FD2094A50600948036A1B021B0AC021B1
:101A700009060B43036200239360073313600020C1
:101A800070470120FCE7C04610E000E000ED00E0F8
:101A900003688022D205904205D0124A904202D0BB
:101AA000114A904203D1702293434A681343802223
:101AB000D205904205D00B4A904202D00A4A904289
:101AC00003D10A4A1340CA681343802293430A6928
:101AD000134303608B68C3620B6883620123436115
:101AE0007047C0460008014000140140FFFCFFFFA2
:101AF00030B5036A012293430362036A4468826932
:101B00007325AA430D682A430225AB438D682B43F6
:101B1000446082614A684263036230BD30B5036A43
:101B2000102293430362036A45688269084C14409B
:101B30000A68120222432024A3431C008B681B0165
:101B40002343456082614A688263036230BDC046B8
:101B5000FF8CFFFF30B5036A0A4A13400362036A31
:101B60004568C2697324A2430C682243064C1C409A
:101B70008B681B0223434560C2614A68C2630362EB
:101B800030BDC046FFFEFFFFFFFDFFFF30B5036A1B
:101B90000A4A13400362036A4568C269084C14404C
:101BA0000A6812022243074C1C408B681B03234324
:101BB0004560C2614A680264036230BDFFEFFFFF07
:101BC000FF8CFFFFFFDFFFFF30B5036A046A0125CA
:101BD000AC4304628469EF35AC43120122430A240A
:101BE000A3430B438261036230BD000030B5036A3A
:101BF0001024A34303628469036A054D2C40120339
:101C00002243A024A343090119438261016230BD2C
:101C1000FF0FFFFF8368702293430B4307210B43A1
:101C20008360704730B58468034D2C401B0213431A
:101C30000B432343836030BDFF00FFFF10B51F231C
:101C4000194001248C40036AA3430362036A8A405B
:101C50001343036210BD70B5041E14D03923C35C56
:101C6000002B0AD0392502236355210001C9FFF753
:101C70000FFF01236355002070BD38330022C2548A
:101C8000FEF76EFBEEE70120F6E70268D36801215C
:101C90000B43D3600268916807230B40062B03D0E7
:101CA000136801210B43136000207047704770B523
:101CB000041E14D03923C35C002B0AD0392502231B
:101CC0006355210001C9FFF7E3FE0123635500209E
:101CD00070BD38330022C254FFF7E8FFEEE7012061
:101CE000F6E7704770B5041E14D03923C35C002B8F
:101CF0000AD0392502236355210001C9FFF7C8FE28
:101D000001236355002070BD38330022C254FFF711
:101D1000E8FFEEE70120F6E710B5040001220068B5
:101D2000FFF78CFF2268916807230B40062B03D036
:101D3000136801210B431360002010BD10B504008F
:101D400000220068FFF77AFF2368196A054A1142EA
:101D500003D11A6801218A431A6039230122E2540F
:101D6000002010BD1111000010B504003823C35C21
:101D7000012B25D038230120E05401330130E054F9
:101D8000082A19D007D8002A0BD0042A0CD12068C1
:101D9000FFF7C4FE08E00C2A06D12068FFF7F6FE24
:101DA00002E02068FFF7A4FE39230122E254013B40
:101DB0000022E254002010BD2068FFF7CBFEF3E7BD
:101DC0000220F8E770B504000D003823C35C012B36
:101DD00069D038230121C15401330131C154082A8B
:101DE0004DD019D8002A2FD0042A40D129000068EC
:101DF000FFF794FE2268916980231B010B439361D6
:101E00002268936929490B40936121688B69EA68CC
:101E1000120213438B612AE00C2A28D129000068A2
:101E2000FFF7B4FE2268D16980231B010B43D36105
:101E30002268D3691D490B40D3612168CB69EA68E8
:101E400012021343CB6112E029000068FFF750FE35
:101E50002268936908210B439361226893690439CE
:101E60008B43936122689369E9680B43936139233B
:101E70000122E254013B0022E254002070BD2900FF
:101E80000068FFF767FE2268D36908210B43D3611E
:101E90002268D36904398B43D3612268D369E96826
:101EA0000B43D361E3E70220E8E7C046FFFBFFFFF7
:101EB00010B504003823C35C012B66D038230122FF
:101EC000C25401330132C25402689368304803405F
:101ED00093600B68602B44D024D8402B4BD00BD997
:101EE000502B0ED1CA6849682068FFF76DFE50215B
:101EF0002068FFF78FFE04E0202B0ED009D9302B8D
:101F00000BD039230122E254013B0022E25400208D
:101F100010BD002B01D0102BF3D119002068FFF762
:101F200079FEEEE7702B10D0802292019342E8D127
:101F3000CB684A6889682068FFF774FE2268916858
:101F40008023DB010B439360DBE7CB684A68896839
:101F50002068FFF767FE2268936877210B43936040
:101F6000CFE7CA6849682068FFF740FE6021206813
:101F7000FFF750FEC5E7CA6849682068FFF724FEEE
:101F800040212068FFF746FEBBE70220C0E7C046BD
:101F90008800FFFF704770477047704710B5040016
:101FA00003681A6992070FD5DA6892070CD50322E5
:101FB00052421A610123037603689B699B0755D03F
:101FC000FFF7E9FF0023237623681A69520712D529
:101FD000DA6852070FD5052252421A61022323768E
:101FE00023689A69C0239B001A4245D02000FFF75E
:101FF000D2FF0023237623681A69120710D5DA6806
:1020000012070DD5092252421A6104232376236850
:10201000DB699B0737D02000FFF7BDFF0023237645
:1020200023681A69D20612D5DA68D2060FD51122B2
:1020300052421A61082323762368DA69C0239B0081
:102040001A4227D02000FFF7A6FF0023237623683B
:102050001A69D20702D5DA68D20722D423681A692E
:10206000520602D5DA68520622D410BDFFF792FF5D
:102070002000FFF791FFA5E72000FFF78BFF20006E
:10208000FFF78AFFB5E72000FFF784FF2000FFF786
:1020900083FFC3E72000FFF77DFF2000FFF77CFFF1
:1020A000D3E7022252421A61200002F03BFED5E73C
:1020B000412252421A612000FFF76FFFD5E7F0B5C9
:1020C0003823C35C012B1BD0382601239C46835543
:1020D00039270133C3550268546893687025AC43AF
:1020E0000D682C438025AB431D004B682B43546087
:1020F000026893606346C355002383550020F0BDFA
:102100000220FCE770B553043ED504685023E35A1F
:102110000D78EE009B191B193A4CA44663441C88A9
:10212000A405A40D8B69A34224D31B1B8B618B696F
:10213000002B0DD1AD0003689C4665442E88324BC0
:102140001E4080239B015E40304B33439BB22B806B
:1021500053060BD50A78920003689C4662441388A4
:102160002B4D1D402B4B2B439BB21380002C04D1D5
:10217000200070BD00238B61D9E700680A89496996
:10218000230001F033FDF3E704685023E35A0D7890
:10219000EE009B191B19204CA44663441C88A4051F
:1021A000A40D8B69A34229D31B1B8B618B69002B68
:1021B0000DD1AD0003689C4665442E88124B1E402D
:1021C00080239B015E40114B33439BB22B8053060F
:1021D0000BD40A78920003689C46624413880C4D25
:1021E0001D400C4B2B439BB21380002CC0D00068C9
:1021F0004A894969230001F0F9FCB9E700238B61A2
:10220000D4E7C046020400008FBFFFFF8080FFFFBD
:102210008F8FFFFFC080FFFF0604000070B586B0FF
:10222000041E69D0354BC35C002B07D0334B03220F
:10223000E254206800F06EFE00211EE0AA239B00FD
:102240000022C254FEF7EEF9F0E74D1CAB005A191C
:10225000D200A218012050705A19D20011558A00DC
:102260005018C0002018C1865B19DB00E318002657
:10227000DE708663C6630664E9B260688142E4D3B7
:10228000002119E08A005318DB00E3181E006A36AB
:10229000FF3600253570013E3170033635700D363E
:1022A00035607D33FF331D605218D200A218813291
:1022B000FF3215600131C9B28842E3D823001033E0
:1022C0006A4623CB23C203CB03C26168A268E368DA
:1022D000206800F029FE24230022E254074B01323B
:1022E000E254E369012B02D0002006B070BD20004B
:1022F00000F0EFFD0020F8E70120F6E7A90200005A
:1023000070B50400AA239B00C35C012B0DD0AA2545
:10231000AD0001234355006800F0F2FD206801F094
:10232000BBF800236355002070BD0220FCE70000CD
:1023300070B505000C001600530600D4A6E0026834
:102340005023D35A0978C8001B189B189B4A9446FF
:1023500063441A889205920DA369934225D99B1A6A
:10236000A361A369002B23D073040AD589002B68CD
:102370009C4661440B8892481840924B03439BB2A1
:102380000B802423E35C012B24D0296823789B0055
:10239000C9180B888C4A1340302253409BB28B4A99
:1023A00013439BB20B80002070BD0023A361D8E7CC
:1023B0002800FEF76BF97304E7D5227892002B68AA
:1023C0009C46624413887E4919407E4B0B439BB266
:1023D0001380DAE763699B186361E3699B18E36123
:1023E000216A236999421AD3C91A21626278002AA4
:1023F00036D12A685021505A10182278D20012186B
:102400006E498C466244002B15D1118870480140FA
:10241000118011886F48014389B2118022E00029A0
:1024200003D12423E1541300E0E700232422A35422
:1024300023620B00DAE73E2B07D85908D80700D5EE
:102440000131890289B211800CE05909D80600D106
:102450000139890289B25F48014389B2118001E0E4
:10246000012A06D09BB222896169286801F022F80E
:102470008BE72A685021505A10182278D20012187F
:102480004E498C46624499B21180EBE702685023B2
:10249000D35A0978C8001B189B184F4A94466344C6
:1024A0001A889205920DA36993423BD39B1AA361AC
:1024B000A369002B39D073040AD489002B689C4689
:1024C00061440B883E4818403E4B03439BB20B804F
:1024D0002423E35C012B00D057E763699B186361F9
:1024E000E3699B18E361216A2369994230D3C91AD1
:1024F00021622A68617800294BD15031515A521813
:102500002178C900521834498C466244002B2BD1E3
:1025100011882F480140118011882E48014389B24B
:10252000118038E00023A361C2E72800FEF7AEF86F
:10253000730400D529E7227892002B689C466244F8
:1025400013881F4919401F4B0B439BB213801CE794
:10255000002903D12423E1541300CAE70023236296
:102560002422A3540B00C4E73E2B07D85908D807F0
:1025700000D50131890289B211800CE05909D806D1
:1025800000D10139890289B21248014389B2118010
:1025900001E0012906D09BB262896169286800F0D8
:1025A00089FFF2E64F31515A52182178C90052186A
:1025B00009498C46624499B21180ECE7020400009C
:1025C0008F8FFFFF80C0FFFFBF8FFFFF8080FFFF67
:1025D000FF83FFFF0080FFFF06040000F8B5CE4632
:1025E000474680B5040020684423C35A1BB2002B21
:1025F00000DB16E24423C35A99B20F221D00154096
:10260000134200D0C3E0CB0655D5028893B2120521
:1026100000D583E01BB2002BE5DA0388D64A1340CD
:10262000802213439BB2038020685023C35AB422F4
:102630005200A25CD2009B181B18D04A94466344F7
:102640001B889B059B0D22006932FF32D361002B52
:102650000FD0516900290CD01500D28801F0C6FABC
:102660006B69EA69944663446B6100212000FDF7C1
:10267000FEFF236850229A5A9B18C04A944663442E
:1026800022006932FF321269002A6BD11A88BC49D4
:102690000A401A801A88BB490A4392B21A802168FC
:1026A0000A88B94B1A40C0239B015A40B74B1343C9
:1026B0009BB20B8097E70388B54A1A40B14B13438E
:1026C0009BB2038021685023CB5A2822A25CD200FF
:1026D0009B185B18AF4A944663441B889B059B0D6F
:1026E0006364E26B94466344E36300212000FDF7DA
:1026F000CDFF2423E35C002B00D174E7236C002B77
:1027000000D070E72422A35C802149420B43DBB256
:10271000CC31206843520023A35464E75023C35AAA
:10272000B4225200A25CD2009B181B18934A944614
:1027300063441B889B059B0D22006932FF32D361E5
:10274000AC2189006118D28801F050FA2268138800
:1027500089490B4080210B439BB213802000FDF779
:102760007BFF40E73E2A07D85108D20700D5013148
:10277000890289B2198092E75109D20600D1013944
:10278000890289B27F4A114389B2198087E7AE0076
:10279000801903889FB21BB2002B43DB3B0600D499
:1027A00021E7681C83001918C9008846A0442268E4
:1027B00094466644328876491140724A0A4392B27E
:1027C00032804346DB78022B00D10CE12068502395
:1027D000C35A6E1CB2009219D200165DF2009B180B
:1027E0001B186C4A944663441A889205920DAB00FC
:1027F0005B19DB00E3181F6C974200D8FCE0AB00CC
:102800005B19DB00E318BF1A1F64AB005B19DB0028
:10281000E3181B6C002B00D0F5E031002000FDF721
:1028200035FFE0E60388544A1340802213439BB2ED
:1028300003807219D2006932FF329046A0447319A6
:10284000DB00E3187533FF331B78002B4DD1206874
:102850005033C25A7319DB00E3186933FF331B7816
:10286000DB00D3181B18454A944663441B889B051C
:102870009A0D9146002B2AD14B46AA005219D2003C
:10288000A21810008530FF30016849440160110032
:102890007D31FF310868484408608132FF32126898
:1028A000002A09D0AA005219D200A2187932FF32A8
:1028B0001268934200D391E0AB005B19DB00E31890
:1028C0006933FF3319782000FDF7D1FE66E77319ED
:1028D000DB00E3181A006F32FF3212887D33FF33BA
:1028E00019684B4601F082F9C6E7AB005B19DB00C3
:1028F000E3186C33FF331B78022B35D0AB005B1928
:10290000DB00E3186933FF331978890022689446A5
:1029100061440A8820481040204A024392B20A804B
:1029200020681B789A0082181288520438D55022E9
:10293000825ADB00D3181B18164A944663441B883E
:102940009B059A0D9146002B96D0AB005B19DB00DE
:10295000E3181A007132FF3212887D33FF33196891
:102960004B4601F043F987E73A0041462000FFF764
:10297000C9FB814680E7C0468F0F000006040000B7
:10298000FF83FFFF0080FFFF8FBFFFFF8080FFFFFF
:102990000F8FFFFF020400008F8FFFFFC080FFFF3B
:1029A0005022825ADB00D3181B18204A94466344F5
:1029B0001B889B059A0D9146002B00D15CE7AB006C
:1029C0005B19DB00E3181A007332FF3212887D3383
:1029D000FF3319684B4601F009F94DE7414620687D
:1029E00000F07CFDDAE6FB0500D4EFE63A00414654
:1029F0002000FFF79DFCF6E5AB005B19DB00E31858
:102A000000271F6401E7AB005E19F600A619F16B01
:102A10008F18F763736C9A187264414600F05EFD7C
:102A2000E1E50020C0BCB946B046F8BD0604000090
:102A300070B50400AA239B00C35C012B0CD0AA250F
:102A4000AD00012343552333C154006800F01CFD41
:102A500000236355002070BD0220FCE770B5040020
:102A6000006800F023FD030400D57DE0206800F03D
:102A70001DFD430500D57BE0206800F017FD4304F1
:102A800005D5216844228B5A574803408B52206851
:102A900000F00CFD830405D5216844228B5A53486D
:102AA00003408B52206800F001FDC30418D5216853
:102AB0004023CA5A04208243CA522168CA5A0430A9
:102AC0008243CA52B8239B00E35C012B5ED02000F6
:102AD000FDF714FE216844228B5A454803408B526F
:102AE000206800F0E3FC030559D4206800F0DEFC08
:102AF000030628D5216844228B5A802083438B52B9
:102B0000B8239B00E35C002B60D12168043A8B5A08
:102B1000042003439BB28B5221688B5A0820034345
:102B20009BB28B52B8239B003F3AE2545423226855
:102B3000D25A9208183B1340B9229200A3500121A7
:102B4000200000F0DBF9206800F0B0FC830541D4E0
:102B5000206800F0ABFCC30505D5216844228B5AE0
:102B6000244803408B5270BD2000FFF737FD7DE7FE
:102B7000216844228B5A204803408B522000FDF7E5
:102B800099FD00212000FFF753FF75E7B8239B0054
:102B90000022E2540021200000F0B0F997E72168FC
:102BA00040228B5A082003439BB28B522068442159
:102BB000435A124D2B40435221688B5A0420034341
:102BC0009BB28B522000FDF787FD8EE72000FDF7BA
:102BD00083FDB8E7216844228B5A094803408B5291
:102BE0002000FDF760FDB3E7FFBFFFFFFFDFFFFF42
:102BF000FFEFFFFFFFFEFFFFFFFBFFFFFFF7FFFF02
:102C0000FFFDFFFF70B504000D0049B2002929DB6C
:102C100007262E40B0008119C9006931FF316118C3
:102C20008019C00020186A30FF3000260670072087
:102C300005400D700A61CB704A78002A00D0CD8122
:102C4000022B19D0AA239B00E35C012B17D0AA25E5
:102C5000AD0001236355206800F076F90023635529
:102C6000002070BD07202840461CB0008119C90013
:102C7000611801264E70DAE700230B71E2E70220AB
:102C8000EFE770B504000A004BB2002B21DB0720F0
:102C9000084083001918C9006931FF3161181B18F9
:102CA000DB00E3186A33FF330020187007231A4053
:102CB0000A70AA239B00E35C012B14D0AA25AD0067
:102CC00001236355206800F0B3FA00236355002008
:102CD00070BD07230B40581C83001918C9006118E8
:102CE00001204870E2E70220F2E7F8B507260E401F
:102CF000B400A119C9006931FF314118A519ED00CF
:102D000045192F007D37FF373A602A008132FF32A4
:102D100013600432002313606A35FF352B70A41949
:102D2000E40004196934FF342670002E04D10068D1
:102D300000F0D4FB0020F8BD006800F0CFFBF9E7FD
:102D400007230B409900C918C90040188530FF308F
:102D500000687047F0B5C64600B507250D406F1CEA
:102D6000BE00F119C90088468044AC006419E40033
:102D70000419E26323644C229446A4444B3A61460E
:102D80000A70A3640023636443465A70F619F60080
:102D90003554002D07D10068414600F09FFB00200C
:102DA00080BCB846F0BD0068414600F097FBF6E7EE
:102DB00070B504000B0007220A4041688A422AD8F5
:102DC00059B200291FDB9800C118C9006931FF31D1
:102DD0006118C018C00020186A30FF30002303704B
:102DE00001238B700A70AA239B00E35C012B14D093
:102DF000AA25AD0001236355206800F0D1FA002315
:102E00006355002070BD501C83001918C90061185B
:102E100001204870E4E70120F4E70220F2E770B5F2
:102E200004000B000F220A4041688A4230D85AB28F
:102E3000002A23DB0720184082001118C9006931DD
:102E4000FF3161181218D200A2186A32FF32002036
:102E5000107000228A70073213400B70AA239B0067
:102E6000E35C012B16D0AA25AD0001236355206831
:102E700000F0BCFA00236355002070BD07221A4001
:102E8000501C82001118C900611801204870E0E749
:102E90000120F2E70220F0E710B50C060CD507245C
:102EA000214001318C006118C9004018002A0AD164
:102EB0000273C380002010BD8C006118C900693105
:102EC000FF314018F2E70122027303811B0C43819A
:102ED000F0E70168BA239B000122C250083B0022A0
:102EE000C25454328B5A012003439BB28B528B5AEB
:102EF000022003439BB28B520020704770470000B2
:102F000044230022C252043B014AC25200207047AF
:102F100080BFFFFF4022835A02490B4083520020AA
:102F20007047C0467F40000084B001910292039335
:102F300040220123835200238352043283520C32F5
:102F40008352002004B07047F0B503000D78AD0047
:102F500045192A88AA480240C87802285AD00AD8B7
:102F6000002853D0012804D18020C0000243002053
:102F700009E0012007E0032804D1C020C00002437B
:102F8000002000E001209F4C224392B22A800A7860
:102F900096009E1935882DB29B4F3D402A4392B230
:102FA0001443A4B234800A7B002A00D090E04A780F
:102FB000002A3CD050229D5A5D190A78D20052193D
:102FC0008024E400A4466244CC8864086400148031
:102FD0000A7892009A181488640606D514883D0071
:102FE00025408A4C2C43A4B21480CA78012A13D0FD
:102FF0000A7892009B181A8885490A4020214A4085
:1030000092B280490A4392B21A804BE08024A40015
:103010002243B8E70020B6E70A7892009B181A8886
:103020007B491140774A0A4392B21A803AE050260F
:103030009D5B5D190A78D2005219764CA446624411
:10304000CC886408640014809D5B5D190A78D20006
:103050005219714CA44662440C69002C23D1148887
:103060006E4D2C40148014886D4D2C43A4B21480F6
:103070000A7892009A181488640406D51488624D60
:103080002540684C2C43A4B214800A7892009B1807
:103090001988654A1140C02292015140594A0A4399
:1030A00092B21A80F0BD3E2C07D86508E40700D51F
:1030B0000135AD02ADB21580DAE76509E40600D14D
:1030C000013DAD02ADB2564C2543ADB21580CFE700
:1030D0000A7892009A1814884B4D2540534C2C4383
:1030E000A4B2148050269D5B5D190A78D200521953
:1030F0008024E400A44662440C89640864001480BF
:103100009D5B5D190A78D2005219424CA446624474
:103110004C896408640014804A78002A30D10A7807
:1031200092009A181488640406D51488364D2540F8
:103130003C4C2C43A4B214800A7892009A1814884C
:10314000640606D51488304D2540304C2C43A4B27B
:1031500014800C78A4001C192288334D1540C0221D
:1031600092016A40274D2A4392B222800A78920047
:103170009B181A8826490A402A4392B21A8091E77E
:103180000A7892009A181488640406D514881E4D93
:103190002540244C2C43A4B214800A7892009A183B
:1031A0001488640606D51488174D2540174C2C4307
:1031B000A4B21480CA78012A17D00C78A4001C1974
:1031C0002288134D2A4020256A4092B20D4D2A4391
:1031D00092B222800A7892009B181A8812491140F4
:1031E000084A0A4392B21A805CE70A7892009A1859
:1031F0001488074D2540034C2C43A4B21480E9E702
:103200008F89FFFF8080FFFF8F8FFFFFC080FFFF50
:10321000BF8FFFFF0404000006040000FF83FFFFD0
:103220000080FFFF80C0FFFF8FBFFFFF8081FFFF97
:1032300010B50B7B002B33D14B78002B18D00B78BB
:103240009B00C3181A88520606D51A884E4C1440A3
:103250004E4A224392B21A800B789B00C018038812
:103260004B4A1A404B4B13439BB20380002010BDC6
:103270000B789B00C3181A88520406D51A88424C52
:103280001440454A224392B21A800B789B00C01822
:103290000388424A1A403F4B13439BB20380E5E741
:1032A0004B78002B37D10B789B00C3181A88520437
:1032B00006D51A88344C1440374A224392B21A80F9
:1032C0000B789B00C3181A88520606D51A882E4C14
:1032D00014402E4A224392B21A800B789B00C318E6
:1032E0001A88294C1440294A224392B21A800C7839
:1032F000A40004192388294A1340264A13439BB289
:1033000023800B789B00C018038821490B401A4387
:1033100092B20280AAE70B789B00C3181A88520465
:1033200006D51A88184C14401B4A224392B21A80C0
:103330000B789B00C3181A88520606D51A88124CBF
:103340001440124A224392B21A800B789B00C31891
:103350001A880D4C1440104A224392B21A800C78FD
:10336000A400041923880A4A13400A4A13439BB253
:1033700023800B789B00C018038808490B401A4330
:1033800092B2028072E7C0468F8FFFFFC080FFFFBE
:10339000BF8FFFFF8080FFFF80C0FFFF8FBFFFFF59
:1033A0004B78002B0ED00B789B00C01803880C4A7A
:1033B0001340102253409BB20A4A13439BB203802E
:1033C000002070470B789B00C0180288064B1A40FB
:1033D00080235B015A40034B13439BB20380EFE70A
:1033E000BF8FFFFF8080FFFF8FBFFFFF10B50B7BFC
:1033F000002B3AD14B78002B1DD00B789B00C318C3
:103400001A88520606D51A88194C1440194A2243C4
:1034100092B21A80CB78012B27D00B789B00C01872
:103420000388154A1340202253409BB2134A13438A
:103430009BB2038019E00B789B00C3181A885204D2
:1034400006D51A880A4C14400D4A224392B21A80BB
:103450000B789B00C01802880A4B1A40C0239B01BE
:103460005A40064B13439BB20380002010BDC04658
:103470008F8FFFFFC080FFFFBF8FFFFF8080FFFFA8
:1034800080C0FFFF8FBFFFFF002902D14C238022A5
:10349000C2520020704700005822835A02490B4351
:1034A0009BB28352002070470080FFFF4423C05A24
:1034B00080B2704710B501335C0812188023DB001E
:1034C0009C46624407E008784B781B020343138054
:1034D00002320231013C002CF5D110BD70B505005F
:1034E0000C004A78012A2ED00B7B002B00D067E21B
:1034F0008B6909698B4200D849E25B1AA3615023AA
:10350000E85A28182378DB001B18B94A944663440C
:10351000002900D03FE21A88B6490A401A801A886A
:10352000B5490A4392B21A80207880002D182A8863
:10353000B24B1A40C0239B015A40B14B13439BB27C
:103540002B80002070BD8E6909698E4200D90E0063
:10355000237B002B21D0E378022B3ED023789900E7
:1035600069180988490600D4CCE1002A00D0ABE1F3
:103570005032AA5AAA18DB009B189D4A944663440D
:10358000002E00D08BE11A889A490A401A801A88C6
:1035900099490A4392B21A80A0E1B6B2E288330098
:1035A00061692800FFF786FF5023E95A69182378DC
:1035B000DB005B18934A944663441E8020788000A9
:1035C0002D182B88904A1340302253409BB28C4ACE
:1035D00013439BB22B800020B4E7236A994200D3A7
:1035E00042E123789B00EB181A8888491140884AE9
:1035F0000A4392B21A80236A9B1B236223789A00A3
:10360000AA181288520600D48DE06278002A28D1C8
:103610005032AA5AAA18DB009B18754A9446634494
:10362000002E09D11A8873490A401A801A887249F3
:103630000A4392B21A8016E03E2E07D87208F107AC
:1036400000D50132920292B21A800CE07209F106A2
:1036500000D1013A920292B267490A4392B21A80AB
:1036600001E0012A26D06289B3B261692800FFF720
:1036700021FF63699B196361236A2269934224D9FC
:103680009B1B23626378002B38D15033E95A6918A9
:103690002378DB005B185B4A94466344002E18D104
:1036A0001A8854490A401A801A8853490A4392B228
:1036B0001A8025E04F32AA5AAA18DB009B184C4A00
:1036C00094466344B2B21A80CDE7002222621E0003
:1036D000D8E73E2E07D87208F10700D501329202D2
:1036E00092B21A800CE07209F10600D1013A9202FE
:1036F00092B241490A4392B21A8001E0012B06D0EE
:103700002289B3B261692800FFF7D4FE56E74F3330
:10371000EA5AAA182378DB009B183A4A9446634475
:10372000B2B21A80ECE76278002A28D15032AA5A45
:10373000AA18DB009B18334A94466344002E09D133
:103740001A882C490A401A801A882B490A4392B2D7
:103750001A8016E03E2E07D87208F10700D5013214
:10376000920292B21A800CE07209F10600D1013A7D
:10377000920292B220490A4392B21A8001E0012AD1
:1037800026D02289B3B261692800FFF793FE6369EE
:103790009B196361236A2269934224D99B1B23628C
:1037A0006378002B4BD15033E95A69182378DB003A
:1037B0005B180F4A94466344002E2BD11A880D499A
:1037C0000A401A801A880C490A4392B21A8038E0DB
:1037D0004F32AA5AAA18DB009B180A4A944663443F
:1037E000B2B21A80CDE7002222621E00D8E7C0469E
:1037F00006040000FF83FFFF0080FFFF8FBFFFFF75
:103800008080FFFF02040000BF8FFFFF8F8FFFFF4C
:103810008081FFFF3E2E07D87208F10700D50132E4
:10382000920292B21A800CE07209F10600D1013ABC
:10383000920292B2C3490A4392B21A8001E0012B6C
:1038400006D06289B3B261692800FFF733FEB5E69E
:103850004F33EA5AAA182378DB009B18BA4A9446D9
:103860006344B2B21A80ECE722789200AA18118859
:10387000B6480840B649014389B211805022A85A7F
:1038800028182278D2001218B2498C4662449BB2A2
:103890001380228961692800FFF70CFE8EE63E2E18
:1038A00007D87208F10700D50132920292B21A804D
:1038B00014E07209F10600D1013A920292B2A149D4
:1038C0000A4392B21A8009E05022AA5AAA18DB00D1
:1038D0009B189D4A94466344B2B21A806289B3B27F
:1038E00061692800FFF7E6FD6378002B41D123785A
:1038F0009B00EB181A8898491140984A0A4392B2E3
:103900001A805BE6002A28D15032AA5AAA18DB0096
:103910009B18904A94466344002E09D11A88904916
:103920000A401A801A8887490A4392B21A801EE018
:103930003E2E07D87208F10700D50132920292B2EA
:103940001A8014E07209F10600D1013A920292B293
:103950007C490A4392B21A8009E05022AA5AAA1856
:10396000DB009B187B4A94466344B2B21A802289DA
:10397000B5E7012B00D021E623789B00EB181A88CD
:1039800075491140774A0A4392B21A8016E600221E
:10399000A2611900B3E53E2907D84A08C90700D536
:1039A0000132920292B21A80BEE54A09C90600D1DC
:1039B000013A920292B263490A4392B21A80B3E585
:1039C000CB78022B3AD0012B00D008E1896923691A
:1039D000994200D8B1E0C91AA161002A14D150322D
:1039E000A85A28182278D20012185A498C466244E4
:1039F000002B00D0BAE0118859480140118011888D
:103A00005048014389B211806278002A00D0D7E083
:103A10005032A85A28182278D20012184A498C46E7
:103A20006244002B00D0B6E013884D490B40138050
:103A3000138844490B439BB2138075E5002A14D1C7
:103A40004E33C15A41182378DB005B18414A944633
:103A500063442269002A21D11A8841490A401A8008
:103A60001A8838490A4392B21A806378002B3FD1F2
:103A70005033E95A69182378DB005B18324A9446C0
:103A800063442269002A1ED11A8835490A401A80E7
:103A90001A882C490A4392B21A802BE03E2A07D892
:103AA0005108D20700D50131890289B21980DCE7BB
:103AB0005109D20600D10139890289B2214A114344
:103AC00089B21980D1E73E2A07D85108D20700D51C
:103AD0000131890289B219800CE05109D20600D166
:103AE0000139890289B2174A114389B2198001E06C
:103AF000012B16D0E369002B00D115E523789B003C
:103B0000EB181A8818490A408A4202D0002A00D0CD
:103B10000AE51A8810491140104A0A4392B21A80E5
:103B200002E54F33E95A69182378DB005B18064A2F
:103B300094466344228A1A80DCE70023A3610B00C9
:103B40004BE7C0460080FFFF060400008F8EFFFF9A
:103B50008080FFFF020400008F8FFFFFC080FFFF07
:103B6000FF83FFFF80C0FFFF404000003E2B07D8CF
:103B70005908D80700D50131890289B2118043E77D
:103B80005909D80600D10139890289B21548014383
:103B900089B2118038E73E2B07D85908DB0700D5DA
:103BA0000131890289B21180BEE45909DB0600D1D6
:103BB0000139890289B20B4B194389B21180B3E4F0
:103BC000012A00D0B0E44F32A85A28182278D20037
:103BD000121805498C4662449BB21380A4E401206C
:103BE000B0E4C0460080FFFF0604000010B55C088A
:103BF00010188022D2009446604406E00288023009
:103C00000A70120A4A700231013C002CF6D1DB071F
:103C100001D503880B7010BD10B5002816D0A32362
:103C20009B00C358002B03D0A3239B000024C45047
:103C3000002902D0A2239B00C1509D239B0001219B
:103C4000C1540270FCF770FD002010BD0220FCE79B
:103C5000002904D0A3239B00C150002070470220FC
:103C6000FCE710B5FCF7A2FD002010BD10B5A323A2
:103C70009B00C358002B06D01B689847002800D132
:103C800010BD0220FCE70220FAE710B5A3239B0039
:103C9000C3585B689847002010BD000070B5040051
:103CA000A0239B00C518280000F05EF99B239B0011
:103CB0000122E250114BE25A163BE2501033E15C14
:103CC0001F230B40012B0FD0022B12D0002B05D04D
:103CD0007F2399432000FCF787FD03E029002000A3
:103CE00000F0F6FA002070BD2900200000F026FB4D
:103CF000F8E72900200000F054FBF3E786020000FB
:103D000070B505000C001100002C38D19B239B00DE
:103D1000C358032B03D0052B28D020003DE0020020
:103D20004132FF32D368126993420DD99B1A413058
:103D3000FF30C3609A4205D99AB2280000F07CFC9B
:103D400020002AE092B2F8E7A3239B00C3581B6926
:103D5000002B04D09D229200825C032A04D028000C
:103D600000F072FC200018E09847F8E79B239B00C6
:103D70000022C2500021FCF737FD20000DE0A323F4
:103D80009B00C3589B69002B08D09D229200825C47
:103D9000032A05D121009847002070BD0220FCE7CE
:103DA0000220FAE7F8B505000C001100002C5BD1E9
:103DB0009B239B00C358022B0ED0042B01D0002B59
:103DC00003D180212800FCF70FFD9E239B00EB5CB4
:103DD000012B43D02000F8BD026A466AB24220D8C7
:103DE000C76931003800FCF731FA002906D1BE421C
:103DF00004D89C239B00EB589F421ED3A3239B0017
:103E0000EB58DB68002B04D09D229200AA5C032AA9
:103E100021D080212800FCF7E7FC280000F020FCDE
:103E2000D3E7921B026292B200F0EDFB0023002266
:103E300000212800FCF715FDC7E70022280000F04C
:103E4000E2FB9C239B000022EA5000230021280073
:103E5000FCF707FDB9E728009847DAE79E239B00A7
:103E60000022EA542000B6E7A3239B00C3585B69F5
:103E7000002B08D09D229200825C032A05D12100EC
:103E800098470020A7E70220A5E70220A3E770B526
:103E90000400402300220021FCF791FC0125A2230D
:103EA0005B00E55040260C33E650113BFF3B0022FF
:103EB00080212000FCF783FCA56166629D239B00A6
:103EC000E55400239B229200A35063601032A3505C
:103ED000A4239B00E358002B06D0A3239B00E358A8
:103EE0005B68002120009847002070BD017400200D
:103EF000704700009D239B00C15C034A815404224B
:103F0000C25400207047C04675020000024BC25CDC
:103F1000013BC254002070477502000010B59D237C
:103F20009B00C35C032B01D0002010BDA3239B008A
:103F3000C358DB69002BF7D09847F5E70300002052
:103F400002E00130C0B201331A78002AF9D170477B
:103F500010B54B88012B00D010BD9F239B00012280
:103F6000C25000F071FBF7E70B7803704B78437099
:103F70008B78CA7812029B1843800B794A79120217
:103F80009B1883808B79CA7912029B18C380704773
:103F900010B504008021FCF727FC00212000FCF76D
:103FA00023FC10BD30B583B005000C004A88130A0D
:103FB000072B00D992E09B005349CB589F46A22380
:103FC0009B00C3581B68007C6A46911D98476B464E
:103FD00006331B88002B03D0E288002A00D082E041
:103FE000E388002B00D18AE003B030BD037C002BB6
:103FF00009D1A3239B00C3589B6A6A46901D98472A
:1040000002234370E3E7A3239B00C358DB6A6A469D
:10401000901D984702234370D9E7D2B2052A39D8B8
:1040200092003A4B9B589F46A2239B00C3585B6863
:10403000007C6A46911D9847C9E7A2239B00C3589C
:104040009B68007C6A46911D9847C0E7A2239B00AD
:10405000C358DB68007C6A46911D9847B7E7A223E6
:104060009B00C3581B69007C6A46911D9847AEE7C8
:10407000A2239B00C3585B69007C6A46911D984748
:10408000A5E7A2239B00C3589B69007C6A46911D4B
:1040900098479CE72100FFF77BFFA5E7037C002BF7
:1040A00007D1A3239B00C3585B6B6A46901D9847BA
:1040B0008DE72100FFF76CFF96E7037C002B09D109
:1040C000A3239B00C3581B6B6A46901D9847072388
:1040D00043707CE72100FFF75BFF85E721002800A4
:1040E000FFF756FF80E7191C934200D9111C8AB2D2
:1040F0006B46D9800100280000F077FA70E72800AD
:1041000000F0A2FA70E7C0467071000890710008D4
:1041100070B504008B88002B23D1CB88002B20D1D5
:104120004B887F2B1DD87F251D409D239B00C35CA2
:10413000032B0ED00D4BC5542900FCF780FB20004B
:1041400000F082FA002D07D09D239B000222E2544A
:104150000AE0FFF71DFF07E09D239B000122E254C8
:1041600002E02000FFF714FF70BDC0467602000099
:1041700070B504000D0089782A4B197001290FD8F9
:104180009D239B00C35C022B0ED0032B23D0290060
:10419000FFF7FEFE234B19782000FFF776FD02E0C3
:1041A0002900FFF7F5FE70BD002911D041609D2365
:1041B0009B000322C254FFF759FD022803D02000C0
:1041C00000F042FAEFE729002000FFF7E1FEEAE7FE
:1041D00000F03AFAE7E7002911D0436899421ED06F
:1041E000D9B2FFF752FD0F4B197861602000FFF73D
:1041F0003DFD02280ED0200000F026FAD3E79D23D3
:104200009B000222C2544160FFF73FFD200000F0F6
:104210001BFAC8E729002000FFF7BAFEC3E700F049
:1042200013FAC0E7E013002010B5CB88012B0BD1A7
:104230009D239B00C35C022B09D9032B09D1011DCF
:10424000012200F0D2F901E0FFF7A2FE10BD002B21
:1042500002D1FFF79DFEF9E70023836001000831DA
:10426000012200F0C2F9F1E710B59D239B00C35C69
:10427000013B022B14D8CB88022B0ED10123C36043
:104280009F239B00C358002B01D00323C360010070
:104290000C31022200F0A9F910BDFFF779FEFBE70F
:1042A000FFF776FEF8E710B59D239B00C35C013B4A
:1042B000022B0AD84B88012B00D010BD9F239B00F6
:1042C0000022C25000F0C0F9F7E7FFF761FEF4E703
:1042D00010B50A7860231340202B06D0402B04D061
:1042E000002B09D0FFF754FE04E0A3239B00C35822
:1042F0009B689847002010BD4B78092B18D89B006D
:104300000D4AD3589F46FFF74DFEF3E7FFF700FF36
:10431000F0E7FFF72DFFEDE7FFF786FFEAE7FFF78E
:10432000A3FFE7E7FFF714FEE4E7FFF7BCFFE1E7D1
:10433000FFF72EFEDEE7C046A871000870B5050045
:104340000C000A7860231340202B07D0402B05D0A7
:10435000002B03D0FFF71CFE002070BD9D239B00A7
:10436000EB5C013B022B17D82379012B0FD8A32339
:104370009B00EB589B68210028009847E388002B9E
:10438000EAD10028E8D1280000F05EF9E4E7210036
:104390002800FFF7FDFDDFE721002800FFF7F8FD0B
:1043A000DAE770B5050088880A790B7860241C402C
:1043B000202C08D0402C06D0002C0DD02800FFF770
:1043C000E7FD002406E0A3239B00EB589B68280030
:1043D00098470024200070BD202C0AD04E78012E72
:1043E0003ED0032E0DD0002E64D02800FFF7D0FD64
:1043F000F0E7A3239B00EB589B6828009847040034
:10440000E8E79D239B00EB5C022B05D0032B14D027
:104410002800FFF7BDFDDDE7002A01D0802A03D187
:104420002800FFF7B5FDD5E711002800FCF7DCF9FF
:1044300080212800FCF7D8F9CCE74B88002B06D167
:10444000002A04D0802A02D0CB88002B03D0280079
:1044500000F0FAF8BEE711002800FCF7C5F9F6E70E
:104460009D239B00EB5C022B05D0032B14D028006E
:10447000FFF78EFDAEE7002A01D0802A03D1280085
:10448000FFF786FDA6E711002800FCF7ADF98021B3
:104490002800FCF7A9F99DE74B88002B9AD1530619
:1044A00003D1280000F0D0F894E711002800FCF7B1
:1044B000A4F9F6E79D239B00EB5C022B06D0032BAF
:1044C00028D02800FFF764FD340083E7002A01D0DC
:1044D000802A11D1030614D47F210A409100891843
:1044E00089004131FF31691800230B600222280046
:1044F00000F07BF834006DE72800FFF749FD340039
:1045000068E77F210A4091008918890010316918F5
:104510000431E9E744B2030621D40F2010408300A0
:104520001B189B00EB184533FF331B68002B24D06E
:10453000002C27DB7F2313409C00E418A4004134A7
:10454000FF342C19002A01D0802A24D100232360B3
:1045500002222100280000F048F834003AE70F203A
:10456000104083001B189B00EB189B69002BDFD1C8
:104570002800FFF70DFD34002CE72800FFF708FDA9
:10458000340027E77F2313409C00E418A400103474
:104590002C190434D6E711002800FCF737F900285D
:1045A00002D001232360D3E700232360D0E770B556
:1045B00004000D001600002816D0FFF7BFFC0130E4
:1045C00043009BB233802B7003236B70013B08E0E8
:1045D00001345A1CD2B2E8540233DBB2AA180021CB
:1045E000117020780028F3D170BD10B513009B2204
:1045F000920002248450C36103620A000021FCF788
:1046000027F9002010BD10B513000A000021FCF7A7
:104610001FF9002010BD10B513009B229200032447
:104620008450253AFF3A8350043283500A00002117
:10463000FCF717F9002010BD10B513000A00002187
:10464000FCF70FF9002010BD10B59B239B0004223E
:10465000C250002300220021FCF7FAF8002010BD10
:1046600010B59B239B000522C2500023002200218D
:10467000FCF7F7F8002010BD10B5A4239B00C45828
:104680000433C358002B0DD080229200A05CFF2879
:1046900008D09B68044AA25C2100984780239B00B5
:1046A000FF22E254002010BD0102000043230380DA
:1046B00000487047A0000020432303800048704753
:1046C000E4000020432303800048704734010020A9
:1046D0000A230380004870472801002070B50400B9
:1046E000A425AD004659FCF7C5F883239B00F05084
:1046F0006359002B0BD0A5239B00E358DB68832272
:104700009200B118083AB0589847002070BD0220B6
:10471000FCE770B504000D00A4239B00C6580833C5
:10472000C258002E21D08B005B189B00C318D8699B
:10473000002808D08B005B18DB00D318996BFBF7BF
:1047400085FD002905D085239B000022F250002022
:1047500070BDAB005B199B00E3180022DA610023F7
:1047600029002000FCF774F8F1E70220F0E70000D0
:10477000F0B583B005000C00A4239B00C7580023AC
:104780006A46D37101AA13800B78602216001E407E
:104790001A422BD0202E5BD1CA88002A1DD05BB2D2
:1047A000002B0DDAA5239B00C3589B68487839007D
:1047B0009847E28839002800FFF717FF00264AE0F3
:1047C0004A7880239B00FA548A79244BFA54CA8889
:1047D0003900FFF720FF00263DE0A5239B00C358CA
:1047E0009B68487800229847002634E04F780A2FCB
:1047F00016D00B2F23D0002F03D0FFF7C9FB0226C2
:1048000029E09D239B00C35C032B03D0FFF7C0FB73
:10481000022620E0022201A9FFF7E7FE3E001AE08F
:104820009D239B00C35C032B03D0FFF7B1FB022643
:1048300011E001226B46D91DFFF7D7FE0BE09D2347
:104840009B00C35C032B06D0FFF7A2FB022602E00D
:10485000FFF79EFB0226300003B0F0BD010200000E
:1048600070B504008121FBF7B6FF0025E562012148
:104870002000FBF7B0FFAC235B00E5508221200055
:10488000FBF7A9FF2564A4239B00E358002B0BD062
:10489000A5239B00E3585B689847A425AD006059A9
:1048A000FBF7F4FF00236351002070BD70B50400D6
:1048B000037C002B3AD18026B600330002228121EE
:1048C000FBF77DFF0125E562330002220121200074
:1048D000FBF775FFAC235B00E55008230322822120
:1048E0002000FBF76CFF0123236487208000FBF787
:1048F000C9FF0500A4239B00E050002832D00433F8
:10490000E3581B689847002385229200AB5004327D
:10491000AB50267C002E1AD18033143AAA589B0043
:1049200001212000FBF79DFF300070BD40230222D3
:104930008121FBF744FF0125E5624023022201218A
:104940002000FBF73CFFAC235B00E550C5E781236B
:104950009B00EA58C53BFF3B01212000FBF781FF8C
:104960000026E1E70126DFE7002904D0A5239B000C
:10497000C150002070470220FCE7A4239B00C358CD
:10498000822080001950842189005A5000207047ED
:10499000A4239B00C2588C3BD1500020704710B517
:1049A000A4239B00C258002A16D07C3BD358002B6E
:1049B00001D0012010BD85239B000121D150043B73
:1049C000D1580163D35A8221890052588839FF395E
:1049D000FBF73EFF0020EDE70220EBE710B5A42334
:1049E0009B00C258002A15D0037C002B09D18033CC
:1049F0008121890052589B000121FBF732FF0020E2
:104A000010BD81239B00D258C53BFF3B0121FBF722
:104A100028FFF4E70220F3E7104B196880225200C8
:104A20000A431A60DA680E490A40DA601A680D49CA
:104A30000A401A609A6801218A439A601A680A49F2
:104A40000A401A60DA6809490A40DA6000221A61ED
:104A5000074B802212059A607047C0460010024042
:104A60000C40FF88F6FFF6FEFFFFFBFFFFFF02FF93
:104A700000ED00E00D488546002103E00C4B5B583B
:104A8000435004310B480C4B42189A42F6D30B4A60
:104A900002E0002313600432094B9A42F9D3FFF776
:104AA000BBFF01F01DFE00F0C5F9FEE7002000206D
:104AB0001474000800000020400200204002002082
:104AC000E4170020FEE70000F0B589B014220021B1
:104AD00003A801F032FE264BD96A04221143D962A1
:104AE000D96A0A400092009ADA6A01252A43DA62FA
:104AF000DA6A2A400192019AD96A02221143D962E4
:104B0000DB6A1A400292029B1A4CA027FF05002282
:104B100021003800FCF756FF174E0022F821300024
:104B2000FCF750FF0394049500240594069403A910
:104B30003800FCF77DFE032303930494059503A935
:104B40003000FCF775FE80231B0203930494059547
:104B500003A93800FCF76CFEF82303930495059431
:104B6000069403A93000FCF763FE09B0F0BDC0460F
:104B700000100240FC0700000004005070B586B031
:104B800001AE14220021300001F0D7FD0025009570
:104B9000174C184B236065607F23A3608033E3606C
:104BA00025616561A561E5612000FBF7A7FE357011
:104BB0007570B57004950595002231002000FBF753
:104BC00015FF01236A46137053709370D57000224D
:104BD00069462000FBF792FF042200212000FCF729
:104BE0005DF8042200212000FCF758F806B070BDE3
:104BF000E41300200028004030B58BB010220021C3
:104C000006A801F09AFD0822002104A801F095FDF4
:104C100010220021684601F090FD1F4C8023DB0527
:104C2000236000256560A5601C4BE360256165611C
:104C30002000FDF710F880235B01069306A92000F1
:104C4000FDF736F92000FDF74DF80495059504A908
:104C50002000FDF734FA60230093C823DB000193A2
:104C600002950395002269462000FDF7ABF8022368
:104C70000293042269462000FDF7A4F800212000D9
:104C8000FDF74AF804212000FDF746F82000FBF765
:104C900089FB0BB030BDC046081400207F0C00001B
:104CA00030B58BB01022002106A801F046FD082285
:104CB000002104A801F041FD10220021684601F006
:104CC0003CFD154C154B236000256560A560144B19
:104CD000E360256165612000FCF7BDFF80235B0177
:104CE000069306A92000FDF7E3F82000FCF7DFFF9C
:104CF0000495059504A92000FDF7E1F900950195BB
:104D000002950395002269462000FDF72DF820004A
:104D1000FCF7BBFF0BB030BD44140020000801407D
:104D2000F7F90000034B834200D07047024B012289
:104D30001A60FAE744140020C0010020014B012250
:104D40001A6070479414002070B504000D4B1B6866
:104D500083420AD000280BD00B4D00212800FCF71D
:104D6000DBFF04212800FCF7D7FF064B1C6070BD59
:104D7000054D00212800FCF7E1FF04212800FCF785
:104D8000DDFFF2E7B00100200814002010B59CB050
:104D9000382200210EA801F0D0FC1422002109A81D
:104DA00001F0CBFC2022002101A801F0C6FC1E4925
:104DB0000A681E4C224080231B0113430B60FCF742
:104DC00007FE1B4A136D2340136526230E93DA3327
:104DD0001093FF3B119310221292149301331893F6
:104DE0000024199480231B031A9380231B041B9314
:104DF0000EA8FCF79FF80F2309930C3B0A930B9422
:104E00000C940D94012109A8FCF752FB6023019337
:104E100080235B0202938023DB04089301A8FCF744
:104E20001BFC1CB010BDC04600700040FFE7FFFF38
:104E300000100240F0B5D6464F464646C0B58AB08F
:104E40000024744B1C70FBF7F7FFFFF79FFFFFF781
:104E50003BFEFFF793FEFFF7CFFEFFF721FFFBF7C7
:104E6000C7FA6D4B01221A605C609C60DC601C61BB
:104E7000002399469A46A2E0684B00221A60684BCC
:104E80001B68994604A909A800F0DEF86B465B7C14
:104E900098460A211800FBF7D9F9C9B2614F398148
:104EA0000A214046FBF74CF9C0B2F8806B461E7CE5
:104EB0000A213000FBF7CAF9C9B279800A21300013
:104EC000FBF73EF9C0B23880534B5A68DB689A4210
:104ED00008D0B2420CD0B34212D04F4B1868FFF743
:104EE00033FF71E04C49886809698842F1D1F4E7E1
:104EF000494A92689045EED1474A01211160EAE79C
:104F0000454B1B699845E8D1434B00221A60E4E702
:104F1000444B13229A8063E000239A466DE0002000
:104F200004281CDC04231B1A5B003F4A995A3F4F9C
:104F30000F4001AA4600B7524D0808232B404900F4
:104F400009B2802464000C402343802425402B4375
:104F5000102529400B433B43B3520130E0E7534651
:104F60005B00334A9F5AF821B943324E0122300088
:104F7000FCF728FD002239003000FCF723FD002358
:104F80000026002101E016430133082B0ADC5246BB
:104F9000520001A8105A5A00274FD25B0242F2D1A8
:104FA0001143F1E7A027FF0501223800FCF70AFDB5
:104FB000002231003800FCF705FD01F03FFB174BE4
:104FC0001B68002B00D057E7154B1B684A469B1AFD
:104FD000FA22520093429BD9124BE33AFF3A9A804D
:104FE000164B1B68002BE8D0144B00221A600123DB
:104FF0009C46E2445346052B8ED00023042B8EDCC6
:105000005900084A8A5A52000D48105A064A8852D6
:105010000133F3E790140020B4140020941400200E
:105020008C140020A40100208014002067FEFFFFE4
:10503000B401002000040050C4010020C001002081
:105040007C0100207047000070B50400054D00226F
:105050002800FBF7D3FD002221002800FBF7FAFD12
:1050600070BDC046E413002070B503000D000C486D
:105070000268CA2151627739516200221900FBF798
:105080003DFD041E02D00024200070BD0022290036
:105090000348FBF7ABFC0028F6D10134F4E7C04627
:1050A000E41300200300C268D01C03229043D860A0
:1050B00009189A68914204D85A6894466044D960A5
:1050C00070470020FCE700000FB470B582B006AB5B
:1050D00004CB01930B4D286880246400211A0A4EEA
:1050E000801901F0A9FB2B68E41A844204DD002832
:1050F00002DD1818034B186002B070BC08BC04B085
:105100001847C046B0140020D015002005280DD83F
:105110008000084B1B589F46074870470748FCE72C
:105120000748FAE70748F8E70748F6E70748F4E7CB
:105130000748F2E75C72000858720008087200081D
:10514000187200083072000840720008EC71000804
:10515000FC710008F8B50F00036845685C6808E05A
:105160002800FAF7D1FF43425841C0B200280CD1C1
:105170003468261E09D0A168002D01D00029EFD186
:10518000691A4B425941C8B2F0E7211E09D02500E7
:105190001035247C012C0FD0013CE4B2012C15D930
:1051A00000213868002813D0002911D0FAF7ACFF8D
:1051B00043425841C0B2F8BDA9680029ECD0074865
:1051C000FAF7A2FF0028E7D10021EAE7A968E8E79B
:1051D000401A43425841C0B2EDE7C046747200081D
:1051E000026813782F2B0DD004D80D2B07D002D9CD
:1051F000202B04D07047093BDBB2012BFAD80132D7
:105200000260EDE753782A2B0AD02F2BF2D10368E6
:105210005A1C02605B78002BECD00A2BF7D1DFE739
:105220000132026003685A1C02605B78002BE1D0F7
:105230002A2BF7D153782F2BF4D10132026001329F
:105240000260CDE7F0B5C64600B584B00400037B2C
:10525000002B0CD14A4B1B68DB0700D587E0494D7A
:1052600000232B606B60464B01221A6080E0013BFB
:105270000373066833681B68082130009847051ED1
:1052800002D0066000234360002D16D0261D30009A
:10529000FFF7A6FF63681A785B2A5CD1013363606D
:1052A0003000FFF79DFF63681A785D2A21D1013332
:1052B0006360237B013323735AE0314B1B68DB07A8
:1052C00007D4304D00232B606B602D4B01221A60F8
:1052D000DCE72C4DDAE74346586029E000272EE052
:1052E0003000FFF77DFF63681A782C2A33D1013331
:1052F000636000236A4613706946200000F044F89A
:10530000071E28D0A8462868002808D003681B6814
:1053100018219847002802D00023036003724346F7
:105320005B68002BD7D01A001B68002BFBD11060E4
:105330000028D3D008301022694601F0F5F9002F7B
:1053400009D03000FFF74CFF63681A785D2AC7D197
:1053500001336360ADE70A4B1B68DB070DD4094DD1
:1053600000232B606B60064B01221A6000E0054DA4
:10537000280004B080BCB846F0BD024DF8E7C04636
:10538000A4140020A8140020F0B5CE46474680B5EE
:1053900093B0040088460430FFF722FF63681B784F
:1053A0005B2B1AD07B2B35D063681B78272B4BD017
:1053B000222B47D00027260008360096A36899467E
:1053C0000193201DFFF70CFF63681A78272A01D08C
:1053D000222A63D10133636041E02000FFF732FFEE
:1053E0000368002B14D00FD002AB06221A70049071
:1053F000102202A9404601F097F90127380013B0A6
:10540000C0BCB946B046F0BD02AB00221A70EFE74F
:105410000027F3E7200000F083F80368002B0FD08B
:105420000AD006AB07221A700890102206A940463F
:1054300001F07AF90127E1E706AB00221A70F4E7E0
:105440000027DBE70127B6E70127B4E76B78002BDD
:1054500042D0013060603168481C30600B70616878
:105460000B78002B38D0481C60609A4234D05C2BFB
:10547000F1D14B78294D29780029E8D08B42E5D02D
:105480000235F8E70123002B26D0636801336360FF
:105490003368591C31601A7063681A782F2A01D951
:1054A000392AEFD95E2A01D97A2A0BD9402A01D9A3
:1054B0005A2A09D92B2A09D02D2A09D02E2A09D0F7
:1054C0000023E0E70123DEE70123DCE70123DAE73D
:1054D0000123D8E70123D6E7A3685A1CA260002263
:1054E0001A704B46002B16D0002F09D00EA90223AC
:1054F0000B704B468B601032404601F015F97DE78A
:105500000AA901230B704B468B601022404601F024
:105510000BF9012772E7002770E7C0468072000888
:10552000F0B5D6464F464646C0B584B00400037B6E
:10553000002B12D1974B1B68DB0700D525E1964D58
:1055400000232B606B60934B01221A60280004B08B
:10555000E0BCBA46B146A846F0BD013B03730668FD
:1055600033681B68082130009847051E02D006608A
:1055700000234360002D18D0261D3000FFF730FEB9
:1055800063681A787B2A00D0F3E00133636030004F
:10559000FFF726FE63681A787D2A00D0D6E0013333
:1055A0006360237B01332373D0E77A4B1B68DB07EF
:1055B00007D4794D00232B606B60764B01221A6073
:1055C000DAE7754DD8E702310878002802D0834227
:1055D000F9D14B78002B3ED06146013161603968CA
:1055E000481C38600B7061680B78002B33D0481C66
:1055F000844660609A422ED05C2BF0D14B7867498C
:10560000E2E70123002B26D06368013363603B6827
:10561000591C39601A7063681A782F2A01D9392AFF
:10562000EFD95E2A01D97A2A0BD9402A01D95A2A00
:1056300009D92B2A09D02D2A09D02E2A09D00023D6
:10564000E0E70123DEE70123DCE70123DAE70123BA
:10565000D8E70123D6E7A3685A1CA26000221A707B
:105660004346002B00D184E03000FFF7B9FD6368AA
:105670001A783A2A7DD10133636000236A46137099
:1056800069462000FFF780FE8146002871D043461E
:10569000002B4CD06F6808E04346591A4B425941E1
:1056A000C8B2002811D153461F68BA46002F0CD04B
:1056B000B9684346002BEFD00029EDD04046FAF7F9
:1056C00023FD43425841C0B2EBE73B002F00002BC3
:1056D00012D0103318001022694601F025F84B460D
:1056E000002B46D03000FFF77BFD63681A787D2AD7
:1056F00023D10133636054E72868002808D0036889
:105700001B6820219847002802D0002303600374FF
:105710007B68002B09D01A001B68002BFBD110609E
:10572000031E07D042468260D3E77860F8E7002383
:105730009946D4E700239946D1E73000FFF750FDA2
:1057400063681A782C2A14D1013363602700083764
:105750000097A36898460193201DFFF741FD6368F9
:105760001A78272A02D0222A00D056E70133636034
:1057700039E7084B1B68DB0709D4074D00232B6072
:105780006B60044B01221A60E0E6034DDEE6024D39
:10579000DCE6C046981400209C14002080720008AB
:1057A00010B5011E1FD00378742B1ED02B2B04D0F4
:1057B0002D2B05D10131012403E00131002400E04B
:1057C0000024002005E0820010184000303BC01883
:1057D00001310B781A00303AD2B2092AF3D9002CE1
:1057E00000D0404210BD0020FCE70120FAE7000095
:1057F000F0B5D6464F464646C0B5BE4CA54403005C
:10580000BD4A0C92BD4A0C92BD4A0C9210AA0D9250
:10581000802292000E9200220F92BA4A0C92002827
:1058200020D00200B0A80CA9B0914260836032235E
:105830000373FFF775FE0600B34B00221A60803237
:1058400052000021B14800F078FFB148FFF73CFC5E
:10585000B048FFF739FC3368002B01D100F0B1FEEE
:10586000746809E0AC4ADDE7AC4BC91A4B425941B8
:10587000C8B200280CD12C68251E09D0A1680029C7
:10588000F2D0A648FAF740FC43425841C0B2F0E7D4
:10589000002C22D10124A248FFF716FC2000FFF7BC
:1058A00035FCFFF711FC9F48FFF70EFC9E48FFF701
:1058B0000BFC964800F0A8FE924B0C93904B0C9377
:1058C0008E4B0C938C4B0C930120B4239B009D4476
:1058D000E0BCBA46B146A846F0BD9448FFF7F4FBD9
:1058E00090968E4B9193746808E08C48FAF70CFC04
:1058F00043425841C0B200280BD12C68251E08D065
:10590000A1680029F1D18548091A4B425941C8B212
:10591000F1E7201E09D025001035247C012C18D079
:10592000013CE4B2012C1ED90020FFF7CDFB8048DA
:10593000FFF7CAFB92967F4B93937F4B079307A980
:1059400092A8FFF707FC00280FD07C48FFF7BCFBAC
:10595000ACE7A9680029E3D07948FAF7D5FB00281D
:10596000DED10020E1E7A868DFE79496714B9593BC
:10597000744B079307A994A8FFF7ECFB002816D0F7
:1059800007A905A8FFF760FB05ABD9785A789B7883
:1059900007A8047845788078FA26F600B446614472
:1059A0000290019500946848FFF78EFB7EE796967B
:1059B000604B9793654B079307A996A8FFF7CAFB1F
:1059C000002800D1BBE2746807E0614BC91A4B4262
:1059D0005941C8B200280CD12C68251E09D0A168F5
:1059E0000029F2D05A48FAF78FFB43425841C0B21F
:1059F000F0E7002C01D104244DE70796544B08939F
:105A0000746807E0524BCB1A5A425341DBB2002B69
:105A10000CD12C68251E09D0A1680029F2D04C4871
:105A2000FAF772FB43425841C3B2F0E7002C14D09E
:105A300023001033227C072A0BD0464B1B68DB0760
:105A400009D4454B00221A605A60424A0121116074
:105A500010E09B680EE0404B0CE03E4B1B68DB0700
:105A600007D43D4B00221A605A603A4A0121116066
:105A700000E0394B9893394A99925C6807E0374BBC
:105A8000CB1A5A425341DBB2002B0CD12C68251E95
:105A900009D0A1680029F2D03048FAF735FB43421B
:105AA0005841C3B2F0E7002C1ED022001032237CF4
:105AB000042B0BD8032B0ED2002B13D0013BDBB2EF
:105AC000012B0AD89068FFF76BFE0EE0052B04D17E
:105AD0009068404209E0906807E09068D168FAF762
